{
  "_format": "hh-sol-artifact-1",
  "contractName": "MyDopeNFT",
  "sourceName": "contracts/MyDopeNFT.sol",
  "abi": [
    {
      "inputs": [],
      "stateMutability": "nonpayable",
      "type": "constructor"
    },
    {
      "anonymous": false,
      "inputs": [
        {
          "indexed": true,
          "internalType": "address",
          "name": "owner",
          "type": "address"
        },
        {
          "indexed": true,
          "internalType": "address",
          "name": "approved",
          "type": "address"
        },
        {
          "indexed": true,
          "internalType": "uint256",
          "name": "tokenId",
          "type": "uint256"
        }
      ],
      "name": "Approval",
      "type": "event"
    },
    {
      "anonymous": false,
      "inputs": [
        {
          "indexed": true,
          "internalType": "address",
          "name": "owner",
          "type": "address"
        },
        {
          "indexed": true,
          "internalType": "address",
          "name": "operator",
          "type": "address"
        },
        {
          "indexed": false,
          "internalType": "bool",
          "name": "approved",
          "type": "bool"
        }
      ],
      "name": "ApprovalForAll",
      "type": "event"
    },
    {
      "anonymous": false,
      "inputs": [
        {
          "indexed": false,
          "internalType": "address",
          "name": "sender",
          "type": "address"
        },
        {
          "indexed": false,
          "internalType": "uint256",
          "name": "tokenId",
          "type": "uint256"
        }
      ],
      "name": "NewNFTMinted",
      "type": "event"
    },
    {
      "anonymous": false,
      "inputs": [
        {
          "indexed": true,
          "internalType": "address",
          "name": "from",
          "type": "address"
        },
        {
          "indexed": true,
          "internalType": "address",
          "name": "to",
          "type": "address"
        },
        {
          "indexed": true,
          "internalType": "uint256",
          "name": "tokenId",
          "type": "uint256"
        }
      ],
      "name": "Transfer",
      "type": "event"
    },
    {
      "inputs": [
        {
          "internalType": "address",
          "name": "to",
          "type": "address"
        },
        {
          "internalType": "uint256",
          "name": "tokenId",
          "type": "uint256"
        }
      ],
      "name": "approve",
      "outputs": [],
      "stateMutability": "nonpayable",
      "type": "function"
    },
    {
      "inputs": [
        {
          "internalType": "address",
          "name": "owner",
          "type": "address"
        }
      ],
      "name": "balanceOf",
      "outputs": [
        {
          "internalType": "uint256",
          "name": "",
          "type": "uint256"
        }
      ],
      "stateMutability": "view",
      "type": "function"
    },
    {
      "inputs": [
        {
          "internalType": "uint256",
          "name": "tokenId",
          "type": "uint256"
        }
      ],
      "name": "getApproved",
      "outputs": [
        {
          "internalType": "address",
          "name": "",
          "type": "address"
        }
      ],
      "stateMutability": "view",
      "type": "function"
    },
    {
      "inputs": [],
      "name": "getTotalMinted",
      "outputs": [
        {
          "internalType": "uint256",
          "name": "",
          "type": "uint256"
        }
      ],
      "stateMutability": "view",
      "type": "function"
    },
    {
      "inputs": [
        {
          "internalType": "address",
          "name": "owner",
          "type": "address"
        },
        {
          "internalType": "address",
          "name": "operator",
          "type": "address"
        }
      ],
      "name": "isApprovedForAll",
      "outputs": [
        {
          "internalType": "bool",
          "name": "",
          "type": "bool"
        }
      ],
      "stateMutability": "view",
      "type": "function"
    },
    {
      "inputs": [],
      "name": "makeNFT",
      "outputs": [],
      "stateMutability": "nonpayable",
      "type": "function"
    },
    {
      "inputs": [],
      "name": "name",
      "outputs": [
        {
          "internalType": "string",
          "name": "",
          "type": "string"
        }
      ],
      "stateMutability": "view",
      "type": "function"
    },
    {
      "inputs": [
        {
          "internalType": "uint256",
          "name": "tokenId",
          "type": "uint256"
        }
      ],
      "name": "ownerOf",
      "outputs": [
        {
          "internalType": "address",
          "name": "",
          "type": "address"
        }
      ],
      "stateMutability": "view",
      "type": "function"
    },
    {
      "inputs": [
        {
          "internalType": "uint256",
          "name": "tokenId",
          "type": "uint256"
        }
      ],
      "name": "pickRandomColor",
      "outputs": [
        {
          "internalType": "string",
          "name": "",
          "type": "string"
        }
      ],
      "stateMutability": "view",
      "type": "function"
    },
    {
      "inputs": [
        {
          "internalType": "uint256",
          "name": "tokenId",
          "type": "uint256"
        }
      ],
      "name": "pickRandomFirst",
      "outputs": [
        {
          "internalType": "string",
          "name": "",
          "type": "string"
        }
      ],
      "stateMutability": "view",
      "type": "function"
    },
    {
      "inputs": [
        {
          "internalType": "uint256",
          "name": "tokenId",
          "type": "uint256"
        }
      ],
      "name": "pickRandomSecond",
      "outputs": [
        {
          "internalType": "string",
          "name": "",
          "type": "string"
        }
      ],
      "stateMutability": "view",
      "type": "function"
    },
    {
      "inputs": [
        {
          "internalType": "uint256",
          "name": "tokenId",
          "type": "uint256"
        }
      ],
      "name": "pickRandomThird",
      "outputs": [
        {
          "internalType": "string",
          "name": "",
          "type": "string"
        }
      ],
      "stateMutability": "view",
      "type": "function"
    },
    {
      "inputs": [
        {
          "internalType": "address",
          "name": "from",
          "type": "address"
        },
        {
          "internalType": "address",
          "name": "to",
          "type": "address"
        },
        {
          "internalType": "uint256",
          "name": "tokenId",
          "type": "uint256"
        }
      ],
      "name": "safeTransferFrom",
      "outputs": [],
      "stateMutability": "nonpayable",
      "type": "function"
    },
    {
      "inputs": [
        {
          "internalType": "address",
          "name": "from",
          "type": "address"
        },
        {
          "internalType": "address",
          "name": "to",
          "type": "address"
        },
        {
          "internalType": "uint256",
          "name": "tokenId",
          "type": "uint256"
        },
        {
          "internalType": "bytes",
          "name": "_data",
          "type": "bytes"
        }
      ],
      "name": "safeTransferFrom",
      "outputs": [],
      "stateMutability": "nonpayable",
      "type": "function"
    },
    {
      "inputs": [
        {
          "internalType": "address",
          "name": "operator",
          "type": "address"
        },
        {
          "internalType": "bool",
          "name": "approved",
          "type": "bool"
        }
      ],
      "name": "setApprovalForAll",
      "outputs": [],
      "stateMutability": "nonpayable",
      "type": "function"
    },
    {
      "inputs": [
        {
          "internalType": "bytes4",
          "name": "interfaceId",
          "type": "bytes4"
        }
      ],
      "name": "supportsInterface",
      "outputs": [
        {
          "internalType": "bool",
          "name": "",
          "type": "bool"
        }
      ],
      "stateMutability": "view",
      "type": "function"
    },
    {
      "inputs": [],
      "name": "symbol",
      "outputs": [
        {
          "internalType": "string",
          "name": "",
          "type": "string"
        }
      ],
      "stateMutability": "view",
      "type": "function"
    },
    {
      "inputs": [
        {
          "internalType": "uint256",
          "name": "tokenId",
          "type": "uint256"
        }
      ],
      "name": "tokenURI",
      "outputs": [
        {
          "internalType": "string",
          "name": "",
          "type": "string"
        }
      ],
      "stateMutability": "view",
      "type": "function"
    },
    {
      "inputs": [
        {
          "internalType": "address",
          "name": "from",
          "type": "address"
        },
        {
          "internalType": "address",
          "name": "to",
          "type": "address"
        },
        {
          "internalType": "uint256",
          "name": "tokenId",
          "type": "uint256"
        }
      ],
      "name": "transferFrom",
      "outputs": [],
      "stateMutability": "nonpayable",
      "type": "function"
    }
  ],
  "bytecode": "0x608060405260405180610100016040528060d3815260200162004eea60d39139600990805190602001906200003692919062000f55565b5060405180608001604052806056815260200162004fbd60569139600a90805190602001906200006892919062000f55565b506040518061020001604052806040518060400160405280600781526020017f4b616b617368690000000000000000000000000000000000000000000000000081525081526020016040518060400160405280600681526020017f497461636869000000000000000000000000000000000000000000000000000081525081526020016040518060400160405280600681526020017f4e617275746f000000000000000000000000000000000000000000000000000081525081526020016040518060400160405280600781526020017f4d697473756b690000000000000000000000000000000000000000000000000081525081526020016040518060400160405280600681526020017f4d696e61746f000000000000000000000000000000000000000000000000000081525081526020016040518060400160405280600981526020017f486173686972616d61000000000000000000000000000000000000000000000081525081526020016040518060400160405280600681526020017f53616b757261000000000000000000000000000000000000000000000000000081525081526020016040518060400160405280600781526020017f4a6972616979610000000000000000000000000000000000000000000000000081525081526020016040518060400160405280600681526020017f536173756b65000000000000000000000000000000000000000000000000000081525081526020016040518060400160405280600681526020017f48696e617461000000000000000000000000000000000000000000000000000081525081526020016040518060400160405280600681526020017f536869737569000000000000000000000000000000000000000000000000000081525081526020016040518060400160405280600781526020017f5473756e6164650000000000000000000000000000000000000000000000000081525081526020016040518060400160405280600681526020017f4b6177616b69000000000000000000000000000000000000000000000000000081525081526020016040518060400160405280600381526020017f496e6f000000000000000000000000000000000000000000000000000000000081525081526020016040518060400160405280600681526020017f426f7275746f000000000000000000000000000000000000000000000000000081525081526020016040518060400160405280600681526020017f4d61646172610000000000000000000000000000000000000000000000000000815250815250600b9060106200043592919062000fe6565b506040518061020001604052806040518060400160405280600781526020017f426974636f696e0000000000000000000000000000000000000000000000000081525081526020016040518060400160405280600881526020017f457468657265756d00000000000000000000000000000000000000000000000081525081526020016040518060400160405280600781526020017f43617264616e6f0000000000000000000000000000000000000000000000000081525081526020016040518060400160405280600681526020017f536f6c616e61000000000000000000000000000000000000000000000000000081525081526020016040518060400160405280600881526020017f506f6c6b61646f7400000000000000000000000000000000000000000000000081525081526020016040518060400160405280600881526020017f446f6765636f696e00000000000000000000000000000000000000000000000081525081526020016040518060400160405280600581526020017f546572726100000000000000000000000000000000000000000000000000000081525081526020016040518060400160405280600781526020017f556e69737761700000000000000000000000000000000000000000000000000081525081526020016040518060400160405280600781526020017f5665436861696e0000000000000000000000000000000000000000000000000081525081526020016040518060400160405280600881526020017f4c697465636f696e00000000000000000000000000000000000000000000000081525081526020016040518060400160405280600981526020017f436861696e6c696e6b000000000000000000000000000000000000000000000081525081526020016040518060400160405280600881526020017f416c676f72616e6400000000000000000000000000000000000000000000000081525081526020016040518060400160405280600781526020017f506f6c79676f6e0000000000000000000000000000000000000000000000000081525081526020016040518060400160405280600781526020017f5374656c6c61720000000000000000000000000000000000000000000000000081525081526020016040518060400160405280600681526020017f46616e746f6d000000000000000000000000000000000000000000000000000081525081526020016040518060400160405280600681526020017f4865646572610000000000000000000000000000000000000000000000000000815250815250600c9060106200080292919062000fe6565b50604051806101e001604052806040518060400160405280600581526020017f537573686900000000000000000000000000000000000000000000000000000081525081526020016040518060400160405280600581526020017f52616d656e00000000000000000000000000000000000000000000000000000081525081526020016040518060400160405280600581526020017f4b6174737500000000000000000000000000000000000000000000000000000081525081526020016040518060400160405280600581526020017f437572727900000000000000000000000000000000000000000000000000000081525081526020016040518060400160405280600881526020017f5473756b656d656e00000000000000000000000000000000000000000000000081525081526020016040518060400160405280600481526020017f55646f6e0000000000000000000000000000000000000000000000000000000081525081526020016040518060400160405280600681526020017f4e6967697269000000000000000000000000000000000000000000000000000081525081526020016040518060400160405280600781526020017f4f6e69676972690000000000000000000000000000000000000000000000000081525081526020016040518060400160405280600781526020017f53617368696d690000000000000000000000000000000000000000000000000081525081526020016040518060400160405280600781526020017f54656d707572610000000000000000000000000000000000000000000000000081525081526020016040518060400160405280600881526020017f59616b69746f726900000000000000000000000000000000000000000000000081525081526020016040518060400160405280600581526020017f47796f7a6100000000000000000000000000000000000000000000000000000081525081526020016040518060400160405280600781526020017f446f6e627572690000000000000000000000000000000000000000000000000081525081526020016040518060400160405280600881526020017f54616b6f79616b6900000000000000000000000000000000000000000000000081525081526020016040518060400160405280600581526020017f5761677975000000000000000000000000000000000000000000000000000000815250815250600d90600f62000b949291906200104d565b506040518061010001604052806040518060400160405280600781526020017f236663626132310000000000000000000000000000000000000000000000000081525081526020016040518060400160405280600781526020017f236630353332310000000000000000000000000000000000000000000000000081525081526020016040518060400160405280600781526020017f233032346461310000000000000000000000000000000000000000000000000081525081526020016040518060400160405280600781526020017f236630373261630000000000000000000000000000000000000000000000000081525081526020016040518060400160405280600781526020017f233962303062380000000000000000000000000000000000000000000000000081525081526020016040518060400160405280600781526020017f236462303133380000000000000000000000000000000000000000000000000081525081526020016040518060400160405280600781526020017f233030303030300000000000000000000000000000000000000000000000000081525081526020016040518060400160405280600781526020017f2332373832666600000000000000000000000000000000000000000000000000815250815250600e90600862000d89929190620010b4565b5034801562000d9757600080fd5b506040518060400160405280600781526020017f446f70654e4654000000000000000000000000000000000000000000000000008152506040518060400160405280600481526020017f444f504500000000000000000000000000000000000000000000000000000000815250816000908051906020019062000e1c92919062000f55565b50806001908051906020019062000e3592919062000f55565b50505062000e836040518060400160405280601381526020017f4669727374204e465420636f6e7472616374210000000000000000000000000081525062000e8960201b6200142b1760201c565b620012d5565b62000f298160405160240162000ea09190620011e9565b6040516020818303038152906040527f41304fac000000000000000000000000000000000000000000000000000000007bffffffffffffffffffffffffffffffffffffffffffffffffffffffff19166020820180517bffffffffffffffffffffffffffffffffffffffffffffffffffffffff838183161783525050505062000f2c60201b60201c565b50565b60008151905060006a636f6e736f6c652e6c6f679050602083016000808483855afa5050505050565b82805462000f63906200125f565b90600052602060002090601f01602090048101928262000f87576000855562000fd3565b82601f1062000fa257805160ff191683800117855562000fd3565b8280016001018555821562000fd3579182015b8281111562000fd257825182559160200191906001019062000fb5565b5b50905062000fe291906200111b565b5090565b8280548282559060005260206000209081019282156200103a579160200282015b82811115620010395782518290805190602001906200102892919062000f55565b509160200191906001019062001007565b5b5090506200104991906200113a565b5090565b828054828255906000526020600020908101928215620010a1579160200282015b82811115620010a05782518290805190602001906200108f92919062000f55565b50916020019190600101906200106e565b5b509050620010b091906200113a565b5090565b82805482825590600052602060002090810192821562001108579160200282015b8281111562001107578251829080519060200190620010f692919062000f55565b5091602001919060010190620010d5565b5b5090506200111791906200113a565b5090565b5b80821115620011365760008160009055506001016200111c565b5090565b5b808211156200115e576000818162001154919062001162565b506001016200113b565b5090565b50805462001170906200125f565b6000825580601f10620011845750620011a5565b601f016020900490600052602060002090810190620011a491906200111b565b5b50565b6000620011b5826200120d565b620011c1818562001218565b9350620011d381856020860162001229565b620011de81620012c4565b840191505092915050565b60006020820190508181036000830152620012058184620011a8565b905092915050565b600081519050919050565b600082825260208201905092915050565b60005b83811015620012495780820151818401526020810190506200122c565b8381111562001259576000848401525b50505050565b600060028204905060018216806200127857607f821691505b602082108114156200128f576200128e62001295565b5b50919050565b7f4e487b7100000000000000000000000000000000000000000000000000000000600052602260045260246000fd5b6000601f19601f8301169050919050565b613c0580620012e56000396000f3fe608060405234801561001057600080fd5b50600436106101215760003560e01c80636352211e116100ad578063a22cb46511610071578063a22cb46514610354578063b036b4bd14610370578063b88d4fde1461037a578063c87b56dd14610396578063e985e9c5146103c657610121565b80636352211e14610276578063672da388146102a657806370a08231146102d657806389c0ec311461030657806395d89b411461033657610121565b80630ca1c5c9116100f45780630ca1c5c9146101c057806323b872dd146101de57806342842e0e146101fa578063514dc8c6146102165780635e8f33f91461024657610121565b806301ffc9a71461012657806306fdde0314610156578063081812fc14610174578063095ea7b3146101a4575b600080fd5b610140600480360381019061013b9190612757565b6103f6565b60405161014d919061345b565b60405180910390f35b61015e6104d8565b60405161016b9190613476565b60405180910390f35b61018e600480360381019061018991906127a9565b61056a565b60405161019b91906133cb565b60405180910390f35b6101be60048036038101906101b9919061271b565b6105ef565b005b6101c8610707565b6040516101d591906136f6565b60405180910390f35b6101f860048036038101906101f39190612615565b61071c565b005b610214600480360381019061020f9190612615565b61077c565b005b610230600480360381019061022b91906127a9565b61079c565b60405161023d9190613476565b60405180910390f35b610260600480360381019061025b91906127a9565b6108ba565b60405161026d9190613476565b60405180910390f35b610290600480360381019061028b91906127a9565b6109d8565b60405161029d91906133cb565b60405180910390f35b6102c060048036038101906102bb91906127a9565b610a8a565b6040516102cd9190613476565b60405180910390f35b6102f060048036038101906102eb91906125b0565b610ba8565b6040516102fd91906136f6565b60405180910390f35b610320600480360381019061031b91906127a9565b610c60565b60405161032d9190613476565b60405180910390f35b61033e610d7e565b60405161034b9190613476565b60405180910390f35b61036e600480360381019061036991906126df565b610e10565b005b610378610f91565b005b610394600480360381019061038f9190612664565b6111e3565b005b6103b060048036038101906103ab91906127a9565b611245565b6040516103bd9190613476565b60405180910390f35b6103e060048036038101906103db91906125d9565b611397565b6040516103ed919061345b565b60405180910390f35b60007f80ac58cd000000000000000000000000000000000000000000000000000000007bffffffffffffffffffffffffffffffffffffffffffffffffffffffff1916827bffffffffffffffffffffffffffffffffffffffffffffffffffffffff191614806104c157507f5b5e139f000000000000000000000000000000000000000000000000000000007bffffffffffffffffffffffffffffffffffffffffffffffffffffffff1916827bffffffffffffffffffffffffffffffffffffffffffffffffffffffff1916145b806104d157506104d0826114c4565b5b9050919050565b6060600080546104e790613995565b80601f016020809104026020016040519081016040528092919081815260200182805461051390613995565b80156105605780601f1061053557610100808354040283529160200191610560565b820191906000526020600020905b81548152906001019060200180831161054357829003601f168201915b5050505050905090565b60006105758261152e565b6105b4576040517f08c379a00000000000000000000000000000000000000000000000000000000081526004016105ab90613636565b60405180910390fd5b6004600083815260200190815260200160002060009054906101000a900473ffffffffffffffffffffffffffffffffffffffff169050919050565b60006105fa826109d8565b90508073ffffffffffffffffffffffffffffffffffffffff168373ffffffffffffffffffffffffffffffffffffffff16141561066b576040517f08c379a000000000000000000000000000000000000000000000000000000000815260040161066290613696565b60405180910390fd5b8073ffffffffffffffffffffffffffffffffffffffff1661068a61159a565b73ffffffffffffffffffffffffffffffffffffffff1614806106b957506106b8816106b361159a565b611397565b5b6106f8576040517f08c379a00000000000000000000000000000000000000000000000000000000081526004016106ef90613576565b60405180910390fd5b61070283836115a2565b505050565b600061071460085461165b565b600854905090565b61072d61072761159a565b826116f4565b61076c576040517f08c379a0000000000000000000000000000000000000000000000000000000008152600401610763906136d6565b60405180910390fd5b6107778383836117d2565b505050565b610797838383604051806020016040528060008152506111e3565b505050565b606060006107d06107ac84611a2e565b6040516020016107bc91906133a9565b604051602081830303815290604052611bdb565b9050600e80549050816107e39190613a10565b9050600e818154811061081f577f4e487b7100000000000000000000000000000000000000000000000000000000600052603260045260246000fd5b90600052602060002001805461083490613995565b80601f016020809104026020016040519081016040528092919081815260200182805461086090613995565b80156108ad5780601f10610882576101008083540402835291602001916108ad565b820191906000526020600020905b81548152906001019060200180831161089057829003601f168201915b5050505050915050919050565b606060006108ee6108ca84611a2e565b6040516020016108da91906132dc565b604051602081830303815290604052611bdb565b9050600d80549050816109019190613a10565b9050600d818154811061093d577f4e487b7100000000000000000000000000000000000000000000000000000000600052603260045260246000fd5b90600052602060002001805461095290613995565b80601f016020809104026020016040519081016040528092919081815260200182805461097e90613995565b80156109cb5780601f106109a0576101008083540402835291602001916109cb565b820191906000526020600020905b8154815290600101906020018083116109ae57829003601f168201915b5050505050915050919050565b6000806002600084815260200190815260200160002060009054906101000a900473ffffffffffffffffffffffffffffffffffffffff169050600073ffffffffffffffffffffffffffffffffffffffff168173ffffffffffffffffffffffffffffffffffffffff161415610a81576040517f08c379a0000000000000000000000000000000000000000000000000000000008152600401610a78906135b6565b60405180910390fd5b80915050919050565b60606000610abe610a9a84611a2e565b604051602001610aaa91906132fe565b604051602081830303815290604052611bdb565b9050600c8054905081610ad19190613a10565b9050600c8181548110610b0d577f4e487b7100000000000000000000000000000000000000000000000000000000600052603260045260246000fd5b906000526020600020018054610b2290613995565b80601f0160208091040260200160405190810160405280929190818152602001828054610b4e90613995565b8015610b9b5780601f10610b7057610100808354040283529160200191610b9b565b820191906000526020600020905b815481529060010190602001808311610b7e57829003601f168201915b5050505050915050919050565b60008073ffffffffffffffffffffffffffffffffffffffff168273ffffffffffffffffffffffffffffffffffffffff161415610c19576040517f08c379a0000000000000000000000000000000000000000000000000000000008152600401610c1090613596565b60405180910390fd5b600360008373ffffffffffffffffffffffffffffffffffffffff1673ffffffffffffffffffffffffffffffffffffffff168152602001908152602001600020549050919050565b60606000610c94610c7084611a2e565b604051602001610c809190613365565b604051602081830303815290604052611bdb565b9050600b8054905081610ca79190613a10565b9050600b8181548110610ce3577f4e487b7100000000000000000000000000000000000000000000000000000000600052603260045260246000fd5b906000526020600020018054610cf890613995565b80601f0160208091040260200160405190810160405280929190818152602001828054610d2490613995565b8015610d715780601f10610d4657610100808354040283529160200191610d71565b820191906000526020600020905b815481529060010190602001808311610d5457829003601f168201915b5050505050915050919050565b606060018054610d8d90613995565b80601f0160208091040260200160405190810160405280929190818152602001828054610db990613995565b8015610e065780601f10610ddb57610100808354040283529160200191610e06565b820191906000526020600020905b815481529060010190602001808311610de957829003601f168201915b5050505050905090565b610e1861159a565b73ffffffffffffffffffffffffffffffffffffffff168273ffffffffffffffffffffffffffffffffffffffff161415610e86576040517f08c379a0000000000000000000000000000000000000000000000000000000008152600401610e7d90613536565b60405180910390fd5b8060056000610e9361159a565b73ffffffffffffffffffffffffffffffffffffffff1673ffffffffffffffffffffffffffffffffffffffff16815260200190815260200160002060008473ffffffffffffffffffffffffffffffffffffffff1673ffffffffffffffffffffffffffffffffffffffff16815260200190815260200160002060006101000a81548160ff0219169083151502179055508173ffffffffffffffffffffffffffffffffffffffff16610f4061159a565b73ffffffffffffffffffffffffffffffffffffffff167f17307eab39ab6107e8899845ad3d59bd9653f200f220920489ca2b5937696c3183604051610f85919061345b565b60405180910390a35050565b603260085410610fd6576040517f08c379a0000000000000000000000000000000000000000000000000000000008152600401610fcd906136b6565b60405180910390fd5b6000610fe26007611c0e565b90506000610fef82610c60565b90506000610ffc83610a8a565b90506000611009846108ba565b9050600083838360405160200161102293929190613262565b6040516020818303038152906040529050600061103e8661079c565b90506000600982600a8560405160200161105b9493929190613293565b604051602081830303815290604052905060006110a08461107b84611c1c565b60405160200161108c929190613320565b604051602081830303815290604052611c1c565b90506000816040516020016110b59190613387565b60405160208183030381529060405290506111046040518060400160405280601581526020017f0a2d2d2d2d2d2d2d2d2d2d2d2d2d2d2d2d2d2d2d2d000000000000000000000081525061142b565b61110d8161142b565b61114b6040518060400160405280601581526020017f2d2d2d2d2d2d2d2d2d2d2d2d2d2d2d2d2d2d2d2d0a000000000000000000000081525061142b565b611155338a611dda565b61115f8982611df8565b611182604051806060016040528060258152602001613b6b602591398a33611e6c565b61118c6007611f0b565b60018961119991906137ca565b6008819055507f1c05098ed1ff38e6238d2b1b04b2c7977d4c94ce651bda6473f9dba8dbf01da0338a6040516111d0929190613432565b60405180910390a1505050505050505050565b6111f46111ee61159a565b836116f4565b611233576040517f08c379a000000000000000000000000000000000000000000000000000000000815260040161122a906136d6565b60405180910390fd5b61123f84848484611f21565b50505050565b60606112508261152e565b61128f576040517f08c379a000000000000000000000000000000000000000000000000000000000815260040161128690613616565b60405180910390fd5b60006006600084815260200190815260200160002080546112af90613995565b80601f01602080910402602001604051908101604052809291908181526020018280546112db90613995565b80156113285780601f106112fd57610100808354040283529160200191611328565b820191906000526020600020905b81548152906001019060200180831161130b57829003601f168201915b505050505090506000611339611f7d565b905060008151141561134f578192505050611392565b60008251111561138457808260405160200161136c92919061323e565b60405160208183030381529060405292505050611392565b61138d84611f94565b925050505b919050565b6000600560008473ffffffffffffffffffffffffffffffffffffffff1673ffffffffffffffffffffffffffffffffffffffff16815260200190815260200160002060008373ffffffffffffffffffffffffffffffffffffffff1673ffffffffffffffffffffffffffffffffffffffff16815260200190815260200160002060009054906101000a900460ff16905092915050565b6114c18160405160240161143f9190613476565b6040516020818303038152906040527f41304fac000000000000000000000000000000000000000000000000000000007bffffffffffffffffffffffffffffffffffffffffffffffffffffffff19166020820180517bffffffffffffffffffffffffffffffffffffffffffffffffffffffff838183161783525050505061203b565b50565b60007f01ffc9a7000000000000000000000000000000000000000000000000000000007bffffffffffffffffffffffffffffffffffffffffffffffffffffffff1916827bffffffffffffffffffffffffffffffffffffffffffffffffffffffff1916149050919050565b60008073ffffffffffffffffffffffffffffffffffffffff166002600084815260200190815260200160002060009054906101000a900473ffffffffffffffffffffffffffffffffffffffff1673ffffffffffffffffffffffffffffffffffffffff1614159050919050565b600033905090565b816004600083815260200190815260200160002060006101000a81548173ffffffffffffffffffffffffffffffffffffffff021916908373ffffffffffffffffffffffffffffffffffffffff160217905550808273ffffffffffffffffffffffffffffffffffffffff16611615836109d8565b73ffffffffffffffffffffffffffffffffffffffff167f8c5be1e5ebec7d5bd14f71427d1e84f3dd0314c0f7b2291e5b200ac8c7c3b92560405160405180910390a45050565b6116f18160405160240161166f91906136f6565b6040516020818303038152906040527ff5b1bba9000000000000000000000000000000000000000000000000000000007bffffffffffffffffffffffffffffffffffffffffffffffffffffffff19166020820180517bffffffffffffffffffffffffffffffffffffffffffffffffffffffff838183161783525050505061203b565b50565b60006116ff8261152e565b61173e576040517f08c379a000000000000000000000000000000000000000000000000000000000815260040161173590613556565b60405180910390fd5b6000611749836109d8565b90508073ffffffffffffffffffffffffffffffffffffffff168473ffffffffffffffffffffffffffffffffffffffff1614806117b857508373ffffffffffffffffffffffffffffffffffffffff166117a08461056a565b73ffffffffffffffffffffffffffffffffffffffff16145b806117c957506117c88185611397565b5b91505092915050565b8273ffffffffffffffffffffffffffffffffffffffff166117f2826109d8565b73ffffffffffffffffffffffffffffffffffffffff1614611848576040517f08c379a000000000000000000000000000000000000000000000000000000000815260040161183f90613656565b60405180910390fd5b600073ffffffffffffffffffffffffffffffffffffffff168273ffffffffffffffffffffffffffffffffffffffff1614156118b8576040517f08c379a00000000000000000000000000000000000000000000000000000000081526004016118af90613516565b60405180910390fd5b6118c3838383612064565b6118ce6000826115a2565b6001600360008573ffffffffffffffffffffffffffffffffffffffff1673ffffffffffffffffffffffffffffffffffffffff168152602001908152602001600020600082825461191e91906138ab565b925050819055506001600360008473ffffffffffffffffffffffffffffffffffffffff1673ffffffffffffffffffffffffffffffffffffffff168152602001908152602001600020600082825461197591906137ca565b92505081905550816002600083815260200190815260200160002060006101000a81548173ffffffffffffffffffffffffffffffffffffffff021916908373ffffffffffffffffffffffffffffffffffffffff160217905550808273ffffffffffffffffffffffffffffffffffffffff168473ffffffffffffffffffffffffffffffffffffffff167fddf252ad1be2c89b69c2b068fc378daa952ba7f163c4a11628f55a4df523b3ef60405160405180910390a4505050565b60606000821415611a76576040518060400160405280600181526020017f30000000000000000000000000000000000000000000000000000000000000008152509050611bd6565b600082905060005b60008214611aa8578080611a91906139c7565b915050600a82611aa19190613820565b9150611a7e565b60008167ffffffffffffffff811115611aea577f4e487b7100000000000000000000000000000000000000000000000000000000600052604160045260246000fd5b6040519080825280601f01601f191660200182016040528015611b1c5781602001600182028036833780820191505090505b5090505b60008514611bcf57600182611b3591906138ab565b9150600a85611b449190613a10565b6030611b5091906137ca565b60f81b818381518110611b8c577f4e487b7100000000000000000000000000000000000000000000000000000000600052603260045260246000fd5b60200101907effffffffffffffffffffffffffffffffffffffffffffffffffffffffffffff1916908160001a905350600a85611bc89190613820565b9450611b20565b8093505050505b919050565b600081604051602001611bee9190613227565b6040516020818303038152906040528051906020012060001c9050919050565b600081600001549050919050565b60606000825190506000811415611c455760405180602001604052806000815250915050611dd5565b60006003600283611c5691906137ca565b611c609190613820565b6004611c6c9190613851565b90506000602082611c7d91906137ca565b67ffffffffffffffff811115611cbc577f4e487b7100000000000000000000000000000000000000000000000000000000600052604160045260246000fd5b6040519080825280601f01601f191660200182016040528015611cee5781602001600182028036833780820191505090505b5090506000604051806060016040528060408152602001613b90604091399050600181016020830160005b86811015611d925760038101905062ffffff818a015116603f8160121c168401518060081b905060ff603f83600c1c1686015116810190508060081b905060ff603f8360061c1686015116810190508060081b905060ff603f831686015116810190508060e01b90508084526004840193505050611d19565b506003860660018114611dac5760028114611dbc57611dc7565b613d3d60f01b6002830352611dc7565b603d60f81b60018303525b508484525050819450505050505b919050565b611df4828260405180602001604052806000815250612069565b5050565b611e018261152e565b611e40576040517f08c379a0000000000000000000000000000000000000000000000000000000008152600401611e37906135d6565b60405180910390fd5b80600660008481526020019081526020016000209080519060200190611e6792919061243c565b505050565b611f06838383604051602401611e8493929190613498565b6040516020818303038152906040527fe3849f79000000000000000000000000000000000000000000000000000000007bffffffffffffffffffffffffffffffffffffffffffffffffffffffff19166020820180517bffffffffffffffffffffffffffffffffffffffffffffffffffffffff838183161783525050505061203b565b505050565b6001816000016000828254019250508190555050565b611f2c8484846117d2565b611f38848484846120c4565b611f77576040517f08c379a0000000000000000000000000000000000000000000000000000000008152600401611f6e906134d6565b60405180910390fd5b50505050565b606060405180602001604052806000815250905090565b6060611f9f8261152e565b611fde576040517f08c379a0000000000000000000000000000000000000000000000000000000008152600401611fd590613676565b60405180910390fd5b6000611fe8611f7d565b905060008151116120085760405180602001604052806000815250612033565b8061201284611a2e565b60405160200161202392919061323e565b6040516020818303038152906040525b915050919050565b60008151905060006a636f6e736f6c652e6c6f679050602083016000808483855afa5050505050565b505050565b612073838361225b565b61208060008484846120c4565b6120bf576040517f08c379a00000000000000000000000000000000000000000000000000000000081526004016120b6906134d6565b60405180910390fd5b505050565b60006120e58473ffffffffffffffffffffffffffffffffffffffff16612429565b1561224e578373ffffffffffffffffffffffffffffffffffffffff1663150b7a0261210e61159a565b8786866040518563ffffffff1660e01b815260040161213094939291906133e6565b602060405180830381600087803b15801561214a57600080fd5b505af192505050801561217b57506040513d601f19601f820116820180604052508101906121789190612780565b60015b6121fe573d80600081146121ab576040519150601f19603f3d011682016040523d82523d6000602084013e6121b0565b606091505b506000815114156121f6576040517f08c379a00000000000000000000000000000000000000000000000000000000081526004016121ed906134d6565b60405180910390fd5b805181602001fd5b63150b7a0260e01b7bffffffffffffffffffffffffffffffffffffffffffffffffffffffff1916817bffffffffffffffffffffffffffffffffffffffffffffffffffffffff191614915050612253565b600190505b949350505050565b600073ffffffffffffffffffffffffffffffffffffffff168273ffffffffffffffffffffffffffffffffffffffff1614156122cb576040517f08c379a00000000000000000000000000000000000000000000000000000000081526004016122c2906135f6565b60405180910390fd5b6122d48161152e565b15612314576040517f08c379a000000000000000000000000000000000000000000000000000000000815260040161230b906134f6565b60405180910390fd5b61232060008383612064565b6001600360008473ffffffffffffffffffffffffffffffffffffffff1673ffffffffffffffffffffffffffffffffffffffff168152602001908152602001600020600082825461237091906137ca565b92505081905550816002600083815260200190815260200160002060006101000a81548173ffffffffffffffffffffffffffffffffffffffff021916908373ffffffffffffffffffffffffffffffffffffffff160217905550808273ffffffffffffffffffffffffffffffffffffffff16600073ffffffffffffffffffffffffffffffffffffffff167fddf252ad1be2c89b69c2b068fc378daa952ba7f163c4a11628f55a4df523b3ef60405160405180910390a45050565b600080823b905060008111915050919050565b82805461244890613995565b90600052602060002090601f01602090048101928261246a57600085556124b1565b82601f1061248357805160ff19168380011785556124b1565b828001600101855582156124b1579182015b828111156124b0578251825591602001919060010190612495565b5b5090506124be91906124c2565b5090565b5b808211156124db5760008160009055506001016124c3565b5090565b60006124f26124ed84613742565b613711565b90508281526020810184848401111561250a57600080fd5b612515848285613953565b509392505050565b60008135905061252c81613b0e565b92915050565b60008135905061254181613b25565b92915050565b60008135905061255681613b3c565b92915050565b60008151905061256b81613b3c565b92915050565b600082601f83011261258257600080fd5b81356125928482602086016124df565b91505092915050565b6000813590506125aa81613b53565b92915050565b6000602082840312156125c257600080fd5b60006125d08482850161251d565b91505092915050565b600080604083850312156125ec57600080fd5b60006125fa8582860161251d565b925050602061260b8582860161251d565b9150509250929050565b60008060006060848603121561262a57600080fd5b60006126388682870161251d565b93505060206126498682870161251d565b925050604061265a8682870161259b565b9150509250925092565b6000806000806080858703121561267a57600080fd5b60006126888782880161251d565b94505060206126998782880161251d565b93505060406126aa8782880161259b565b925050606085013567ffffffffffffffff8111156126c757600080fd5b6126d387828801612571565b91505092959194509250565b600080604083850312156126f257600080fd5b60006127008582860161251d565b925050602061271185828601612532565b9150509250929050565b6000806040838503121561272e57600080fd5b600061273c8582860161251d565b925050602061274d8582860161259b565b9150509250929050565b60006020828403121561276957600080fd5b600061277784828501612547565b91505092915050565b60006020828403121561279257600080fd5b60006127a08482850161255c565b91505092915050565b6000602082840312156127bb57600080fd5b60006127c98482850161259b565b91505092915050565b6127db816138df565b82525050565b6127ea816138f1565b82525050565b60006127fb82613787565b612805818561379d565b9350612815818560208601613962565b61281e81613afd565b840191505092915050565b600061283482613792565b61283e81856137ae565b935061284e818560208601613962565b61285781613afd565b840191505092915050565b600061286d82613792565b61287781856137bf565b9350612887818560208601613962565b80840191505092915050565b600081546128a081613995565b6128aa81866137bf565b945060018216600081146128c557600181146128d657612909565b60ff19831686528186019350612909565b6128df85613772565b60005b83811015612901578154818901526001820191506020810190506128e2565b838801955050505b50505092915050565b600061291f6032836137ae565b91507f4552433732313a207472616e7366657220746f206e6f6e20455243373231526560008301527f63656976657220696d706c656d656e74657200000000000000000000000000006020830152604082019050919050565b6000612985601c836137ae565b91507f4552433732313a20746f6b656e20616c7265616479206d696e746564000000006000830152602082019050919050565b60006129c5600a836137bf565b91507f54484952445f574f5244000000000000000000000000000000000000000000006000830152600a82019050919050565b6000612a056024836137ae565b91507f4552433732313a207472616e7366657220746f20746865207a65726f2061646460008301527f72657373000000000000000000000000000000000000000000000000000000006020830152604082019050919050565b6000612a6b6019836137ae565b91507f4552433732313a20617070726f766520746f2063616c6c6572000000000000006000830152602082019050919050565b6000612aab600b836137bf565b91507f5345434f4e445f574f52440000000000000000000000000000000000000000006000830152600b82019050919050565b6000612aeb602c836137ae565b91507f4552433732313a206f70657261746f7220717565727920666f72206e6f6e657860008301527f697374656e7420746f6b656e00000000000000000000000000000000000000006020830152604082019050919050565b6000612b51600d836137bf565b91507f3c2f746578743e3c2f7376673e000000000000000000000000000000000000006000830152600d82019050919050565b6000612b916038836137ae565b91507f4552433732313a20617070726f76652063616c6c6572206973206e6f74206f7760008301527f6e6572206e6f7220617070726f76656420666f7220616c6c00000000000000006020830152604082019050919050565b6000612bf7602a836137ae565b91507f4552433732313a2062616c616e636520717565727920666f7220746865207a6560008301527f726f2061646472657373000000000000000000000000000000000000000000006020830152604082019050919050565b6000612c5d6029836137ae565b91507f4552433732313a206f776e657220717565727920666f72206e6f6e657869737460008301527f656e7420746f6b656e00000000000000000000000000000000000000000000006020830152604082019050919050565b6000612cc3602e836137ae565b91507f45524337323155524953746f726167653a2055524920736574206f66206e6f6e60008301527f6578697374656e7420746f6b656e0000000000000000000000000000000000006020830152604082019050919050565b6000612d296002836137bf565b91507f227d0000000000000000000000000000000000000000000000000000000000006000830152600282019050919050565b6000612d696020836137ae565b91507f4552433732313a206d696e7420746f20746865207a65726f20616464726573736000830152602082019050919050565b6000612da96031836137ae565b91507f45524337323155524953746f726167653a2055524920717565727920666f722060008301527f6e6f6e6578697374656e7420746f6b656e0000000000000000000000000000006020830152604082019050919050565b6000612e0f602c836137ae565b91507f4552433732313a20617070726f76656420717565727920666f72206e6f6e657860008301527f697374656e7420746f6b656e00000000000000000000000000000000000000006020830152604082019050919050565b6000612e756029836137ae565b91507f4552433732313a207472616e73666572206f6620746f6b656e2074686174206960008301527f73206e6f74206f776e00000000000000000000000000000000000000000000006020830152604082019050919050565b6000612edb602f836137ae565b91507f4552433732314d657461646174613a2055524920717565727920666f72206e6f60008301527f6e6578697374656e7420746f6b656e00000000000000000000000000000000006020830152604082019050919050565b6000612f41600a836137bf565b91507f7b226e616d65223a2022000000000000000000000000000000000000000000006000830152600a82019050919050565b6000612f816021836137ae565b91507f4552433732313a20617070726f76616c20746f2063757272656e74206f776e6560008301527f72000000000000000000000000000000000000000000000000000000000000006020830152604082019050919050565b6000612fe7600a836137bf565b91507f46495253545f574f5244000000000000000000000000000000000000000000006000830152600a82019050919050565b6000613027601d836137bf565b91507f646174613a6170706c69636174696f6e2f6a736f6e3b6261736536342c0000006000830152601d82019050919050565b60006130676023836137ae565b91507f4d617820616d6f756e74206f66204e46547320686173206265656e207265616360008301527f68656400000000000000000000000000000000000000000000000000000000006020830152604082019050919050565b60006130cd6031836137ae565b91507f4552433732313a207472616e736665722063616c6c6572206973206e6f74206f60008301527f776e6572206e6f7220617070726f7665640000000000000000000000000000006020830152604082019050919050565b60006131336005836137bf565b91507f434f4c4f520000000000000000000000000000000000000000000000000000006000830152600582019050919050565b6000613173606f836137bf565b91507f222c20226465736372697074696f6e223a2022546865204e617275746f20782060008301527f43727970746f20636f6c6c616220796f75206e65766572206b6e657720796f7560208301527f206e65656465642e222c2022696d616765223a2022646174613a696d6167652f60408301527f7376672b786d6c3b6261736536342c00000000000000000000000000000000006060830152606f82019050919050565b61322181613949565b82525050565b60006132338284612862565b915081905092915050565b600061324a8285612862565b91506132568284612862565b91508190509392505050565b600061326e8286612862565b915061327a8285612862565b91506132868284612862565b9150819050949350505050565b600061329f8287612893565b91506132ab8286612862565b91506132b78285612893565b91506132c38284612862565b91506132ce82612b44565b915081905095945050505050565b60006132e7826129b8565b91506132f38284612862565b915081905092915050565b600061330982612a9e565b91506133158284612862565b915081905092915050565b600061332b82612f34565b91506133378285612862565b915061334282613166565b915061334e8284612862565b915061335982612d1c565b91508190509392505050565b600061337082612fda565b915061337c8284612862565b915081905092915050565b60006133928261301a565b915061339e8284612862565b915081905092915050565b60006133b482613126565b91506133c08284612862565b915081905092915050565b60006020820190506133e060008301846127d2565b92915050565b60006080820190506133fb60008301876127d2565b61340860208301866127d2565b6134156040830185613218565b818103606083015261342781846127f0565b905095945050505050565b600060408201905061344760008301856127d2565b6134546020830184613218565b9392505050565b600060208201905061347060008301846127e1565b92915050565b600060208201905081810360008301526134908184612829565b905092915050565b600060608201905081810360008301526134b28186612829565b90506134c16020830185613218565b6134ce60408301846127d2565b949350505050565b600060208201905081810360008301526134ef81612912565b9050919050565b6000602082019050818103600083015261350f81612978565b9050919050565b6000602082019050818103600083015261352f816129f8565b9050919050565b6000602082019050818103600083015261354f81612a5e565b9050919050565b6000602082019050818103600083015261356f81612ade565b9050919050565b6000602082019050818103600083015261358f81612b84565b9050919050565b600060208201905081810360008301526135af81612bea565b9050919050565b600060208201905081810360008301526135cf81612c50565b9050919050565b600060208201905081810360008301526135ef81612cb6565b9050919050565b6000602082019050818103600083015261360f81612d5c565b9050919050565b6000602082019050818103600083015261362f81612d9c565b9050919050565b6000602082019050818103600083015261364f81612e02565b9050919050565b6000602082019050818103600083015261366f81612e68565b9050919050565b6000602082019050818103600083015261368f81612ece565b9050919050565b600060208201905081810360008301526136af81612f74565b9050919050565b600060208201905081810360008301526136cf8161305a565b9050919050565b600060208201905081810360008301526136ef816130c0565b9050919050565b600060208201905061370b6000830184613218565b92915050565b6000604051905081810181811067ffffffffffffffff8211171561373857613737613ace565b5b8060405250919050565b600067ffffffffffffffff82111561375d5761375c613ace565b5b601f19601f8301169050602081019050919050565b60008190508160005260206000209050919050565b600081519050919050565b600081519050919050565b600082825260208201905092915050565b600082825260208201905092915050565b600081905092915050565b60006137d582613949565b91506137e083613949565b9250827fffffffffffffffffffffffffffffffffffffffffffffffffffffffffffffffff0382111561381557613814613a41565b5b828201905092915050565b600061382b82613949565b915061383683613949565b92508261384657613845613a70565b5b828204905092915050565b600061385c82613949565b915061386783613949565b9250817fffffffffffffffffffffffffffffffffffffffffffffffffffffffffffffffff04831182151516156138a05761389f613a41565b5b828202905092915050565b60006138b682613949565b91506138c183613949565b9250828210156138d4576138d3613a41565b5b828203905092915050565b60006138ea82613929565b9050919050565b60008115159050919050565b60007fffffffff0000000000000000000000000000000000000000000000000000000082169050919050565b600073ffffffffffffffffffffffffffffffffffffffff82169050919050565b6000819050919050565b82818337600083830152505050565b60005b83811015613980578082015181840152602081019050613965565b8381111561398f576000848401525b50505050565b600060028204905060018216806139ad57607f821691505b602082108114156139c1576139c0613a9f565b5b50919050565b60006139d282613949565b91507fffffffffffffffffffffffffffffffffffffffffffffffffffffffffffffffff821415613a0557613a04613a41565b5b600182019050919050565b6000613a1b82613949565b9150613a2683613949565b925082613a3657613a35613a70565b5b828206905092915050565b7f4e487b7100000000000000000000000000000000000000000000000000000000600052601160045260246000fd5b7f4e487b7100000000000000000000000000000000000000000000000000000000600052601260045260246000fd5b7f4e487b7100000000000000000000000000000000000000000000000000000000600052602260045260246000fd5b7f4e487b7100000000000000000000000000000000000000000000000000000000600052604160045260246000fd5b6000601f19601f8301169050919050565b613b17816138df565b8114613b2257600080fd5b50565b613b2e816138f1565b8114613b3957600080fd5b50565b613b45816138fd565b8114613b5057600080fd5b50565b613b5c81613949565b8114613b6757600080fd5b5056fe416e204e465420772f20494420257320686173206265656e206d696e74656420746f2025734142434445464748494a4b4c4d4e4f505152535455565758595a6162636465666768696a6b6c6d6e6f707172737475767778797a303132333435363738392b2fa2646970667358221220ff0aeb3fa1c9c1d00459d9e799bf2bb8c2ef5dc45d2b7bff2a686b19fbdfac8964736f6c634300080000333c73766720786d6c6e733d27687474703a2f2f7777772e77332e6f72672f323030302f73766727207072657365727665417370656374526174696f3d27784d696e594d696e206d656574272076696577426f783d273020302033353020333530273e3c7374796c653e2e62617365207b2066696c6c3a2077686974653b20666f6e742d66616d696c793a2073657269663b20666f6e742d73697a653a20323470783b207d3c2f7374796c653e3c726563742077696474683d273130302527206865696768743d2731303025272066696c6c3d27272f3e3c7465787420783d273530252720793d273530252720636c6173733d27626173652720646f6d696e616e742d626173656c696e653d276d6964646c652720746578742d616e63686f723d276d6964646c65273e",
  "linkReferences": {},
  "deployedLinkReferences": {}
}